{"contracts/Registry.sol":{"Registry":{"abi":[{"anonymous":false,"inputs":[{"indexed":true,"internalType":"bytes6","name":"shortCode","type":"bytes6"},{"indexed":false,"internalType":"bytes","name":"cid","type":"bytes"},{"indexed":true,"internalType":"address","name":"author","type":"address"}],"name":"Registered","type":"event"},{"inputs":[{"internalType":"bytes6","name":"shortCode","type":"bytes6"},{"internalType":"bytes","name":"cid","type":"bytes"}],"name":"register","outputs":[],"stateMutability":"nonpayable","type":"function"},{"inputs":[{"internalType":"bytes6","name":"shortCode","type":"bytes6"}],"name":"resolve","outputs":[{"internalType":"bytes","name":"","type":"bytes"}],"stateMutability":"view","type":"function"}],"evm":{"bytecode":{"linkReferences":{},"object":"608060405234801561001057600080fd5b506109be806100206000396000f3fe608060405234801561001057600080fd5b50600436106100365760003560e01c80639ad647c31461003b578063d65cdc6d1461006b575b600080fd5b6100556004803603810190610050919061037b565b610087565b6040516100629190610438565b60405180910390f35b610085600480360381019061008091906104bf565b6101af565b005b606060008060008479ffffffffffffffffffffffffffffffffffffffffffffffffffff191679ffffffffffffffffffffffffffffffffffffffffffffffffffff1916815260200190815260200160002080546100e29061054e565b80601f016020809104026020016040519081016040528092919081815260200182805461010e9061054e565b801561015b5780601f106101305761010080835404028352916020019161015b565b820191906000526020600020905b81548152906001019060200180831161013e57829003601f168201915b5050505050905060008151036101a6576040517f08c379a000000000000000000000000000000000000000000000000000000000815260040161019d906105dc565b60405180910390fd5b80915050919050565b60008060008579ffffffffffffffffffffffffffffffffffffffffffffffffffff191679ffffffffffffffffffffffffffffffffffffffffffffffffffff1916815260200190815260200160002080546102089061054e565b90501461024a576040517f08c379a000000000000000000000000000000000000000000000000000000000815260040161024190610648565b60405180910390fd5b81816000808679ffffffffffffffffffffffffffffffffffffffffffffffffffff191679ffffffffffffffffffffffffffffffffffffffffffffffffffff1916815260200190815260200160002091826102a5929190610858565b503373ffffffffffffffffffffffffffffffffffffffff168379ffffffffffffffffffffffffffffffffffffffffffffffffffff19167fd98cf9416633cc5b568187d1ae618c931b7e23118fcbc0d81e95f7875f6ff61b848460405161030c929190610964565b60405180910390a3505050565b600080fd5b600080fd5b60007fffffffffffff000000000000000000000000000000000000000000000000000082169050919050565b61035881610323565b811461036357600080fd5b50565b6000813590506103758161034f565b92915050565b60006020828403121561039157610390610319565b5b600061039f84828501610366565b91505092915050565b600081519050919050565b600082825260208201905092915050565b60005b838110156103e25780820151818401526020810190506103c7565b60008484015250505050565b6000601f19601f8301169050919050565b600061040a826103a8565b61041481856103b3565b93506104248185602086016103c4565b61042d816103ee565b840191505092915050565b6000602082019050818103600083015261045281846103ff565b905092915050565b600080fd5b600080fd5b600080fd5b60008083601f84011261047f5761047e61045a565b5b8235905067ffffffffffffffff81111561049c5761049b61045f565b5b6020830191508360018202830111156104b8576104b7610464565b5b9250929050565b6000806000604084860312156104d8576104d7610319565b5b60006104e686828701610366565b935050602084013567ffffffffffffffff8111156105075761050661031e565b5b61051386828701610469565b92509250509250925092565b7f4e487b7100000000000000000000000000000000000000000000000000000000600052602260045260246000fd5b6000600282049050600182168061056657607f821691505b6020821081036105795761057861051f565b5b50919050565b600082825260208201905092915050565b7f456e747279206e6f7420666f756e640000000000000000000000000000000000600082015250565b60006105c6600f8361057f565b91506105d182610590565b602082019050919050565b600060208201905081810360008301526105f5816105b9565b9050919050565b7f53686f727420636f646520616c72656164792072656769737465726564000000600082015250565b6000610632601d8361057f565b915061063d826105fc565b602082019050919050565b6000602082019050818103600083015261066181610625565b9050919050565b600082905092915050565b7f4e487b7100000000000000000000000000000000000000000000000000000000600052604160045260246000fd5b60008190508160005260206000209050919050565b60006020601f8301049050919050565b600082821b905092915050565b6000600883026107047fffffffffffffffffffffffffffffffffffffffffffffffffffffffffffffffff826106c7565b61070e86836106c7565b95508019841693508086168417925050509392505050565b6000819050919050565b6000819050919050565b600061075561075061074b84610726565b610730565b610726565b9050919050565b6000819050919050565b61076f8361073a565b61078361077b8261075c565b8484546106d4565b825550505050565b600090565b61079861078b565b6107a3818484610766565b505050565b5b818110156107c7576107bc600082610790565b6001810190506107a9565b5050565b601f82111561080c576107dd816106a2565b6107e6846106b7565b810160208510156107f5578190505b610809610801856106b7565b8301826107a8565b50505b505050565b600082821c905092915050565b600061082f60001984600802610811565b1980831691505092915050565b6000610848838361081e565b9150826002028217905092915050565b6108628383610668565b67ffffffffffffffff81111561087b5761087a610673565b5b610885825461054e565b6108908282856107cb565b6000601f8311600181146108bf57600084156108ad578287013590505b6108b7858261083c565b86555061091f565b601f1984166108cd866106a2565b60005b828110156108f5578489013582556001820191506020850194506020810190506108d0565b86831015610912578489013561090e601f89168261081e565b8355505b6001600288020188555050505b50505050505050565b82818337600083830152505050565b600061094383856103b3565b9350610950838584610928565b610959836103ee565b840190509392505050565b6000602082019050818103600083015261097f818486610937565b9050939250505056fea2646970667358221220c4eac135348a51c1226df3286a6e35a1ab3679969a91a7895b605f7da3be0c5b64736f6c63430008120033","opcodes":"PUSH1 0x80 PUSH1 0x40 MSTORE CALLVALUE DUP1 ISZERO PUSH2 0x10 JUMPI PUSH1 0x0 DUP1 REVERT JUMPDEST POP PUSH2 0x9BE DUP1 PUSH2 0x20 PUSH1 0x0 CODECOPY PUSH1 0x0 RETURN INVALID PUSH1 0x80 PUSH1 0x40 MSTORE CALLVALUE DUP1 ISZERO PUSH2 0x10 JUMPI PUSH1 0x0 DUP1 REVERT JUMPDEST POP PUSH1 0x4 CALLDATASIZE LT PUSH2 0x36 JUMPI PUSH1 0x0 CALLDATALOAD PUSH1 0xE0 SHR DUP1 PUSH4 0x9AD647C3 EQ PUSH2 0x3B JUMPI DUP1 PUSH4 0xD65CDC6D EQ PUSH2 0x6B JUMPI JUMPDEST PUSH1 0x0 DUP1 REVERT JUMPDEST PUSH2 0x55 PUSH1 0x4 DUP1 CALLDATASIZE SUB DUP2 ADD SWAP1 PUSH2 0x50 SWAP2 SWAP1 PUSH2 0x37B JUMP JUMPDEST PUSH2 0x87 JUMP JUMPDEST PUSH1 0x40 MLOAD PUSH2 0x62 SWAP2 SWAP1 PUSH2 0x438 JUMP JUMPDEST PUSH1 0x40 MLOAD DUP1 SWAP2 SUB SWAP1 RETURN JUMPDEST PUSH2 0x85 PUSH1 0x4 DUP1 CALLDATASIZE SUB DUP2 ADD SWAP1 PUSH2 0x80 SWAP2 SWAP1 PUSH2 0x4BF JUMP JUMPDEST PUSH2 0x1AF JUMP JUMPDEST STOP JUMPDEST PUSH1 0x60 PUSH1 0x0 DUP1 PUSH1 0x0 DUP5 PUSH26 0xFFFFFFFFFFFFFFFFFFFFFFFFFFFFFFFFFFFFFFFFFFFFFFFFFFFF NOT AND PUSH26 0xFFFFFFFFFFFFFFFFFFFFFFFFFFFFFFFFFFFFFFFFFFFFFFFFFFFF NOT AND DUP2 MSTORE PUSH1 0x20 ADD SWAP1 DUP2 MSTORE PUSH1 0x20 ADD PUSH1 0x0 KECCAK256 DUP1 SLOAD PUSH2 0xE2 SWAP1 PUSH2 0x54E JUMP JUMPDEST DUP1 PUSH1 0x1F ADD PUSH1 0x20 DUP1 SWAP2 DIV MUL PUSH1 0x20 ADD PUSH1 0x40 MLOAD SWAP1 DUP2 ADD PUSH1 0x40 MSTORE DUP1 SWAP3 SWAP2 SWAP1 DUP2 DUP2 MSTORE PUSH1 0x20 ADD DUP3 DUP1 SLOAD PUSH2 0x10E SWAP1 PUSH2 0x54E JUMP JUMPDEST DUP1 ISZERO PUSH2 0x15B JUMPI DUP1 PUSH1 0x1F LT PUSH2 0x130 JUMPI PUSH2 0x100 DUP1 DUP4 SLOAD DIV MUL DUP4 MSTORE SWAP2 PUSH1 0x20 ADD SWAP2 PUSH2 0x15B JUMP JUMPDEST DUP3 ADD SWAP2 SWAP1 PUSH1 0x0 MSTORE PUSH1 0x20 PUSH1 0x0 KECCAK256 SWAP1 JUMPDEST DUP2 SLOAD DUP2 MSTORE SWAP1 PUSH1 0x1 ADD SWAP1 PUSH1 0x20 ADD DUP1 DUP4 GT PUSH2 0x13E JUMPI DUP3 SWAP1 SUB PUSH1 0x1F AND DUP3 ADD SWAP2 JUMPDEST POP POP POP POP POP SWAP1 POP PUSH1 0x0 DUP2 MLOAD SUB PUSH2 0x1A6 JUMPI PUSH1 0x40 MLOAD PUSH32 0x8C379A000000000000000000000000000000000000000000000000000000000 DUP2 MSTORE PUSH1 0x4 ADD PUSH2 0x19D SWAP1 PUSH2 0x5DC JUMP JUMPDEST PUSH1 0x40 MLOAD DUP1 SWAP2 SUB SWAP1 REVERT JUMPDEST DUP1 SWAP2 POP POP SWAP2 SWAP1 POP JUMP JUMPDEST PUSH1 0x0 DUP1 PUSH1 0x0 DUP6 PUSH26 0xFFFFFFFFFFFFFFFFFFFFFFFFFFFFFFFFFFFFFFFFFFFFFFFFFFFF NOT AND PUSH26 0xFFFFFFFFFFFFFFFFFFFFFFFFFFFFFFFFFFFFFFFFFFFFFFFFFFFF NOT AND DUP2 MSTORE PUSH1 0x20 ADD SWAP1 DUP2 MSTORE PUSH1 0x20 ADD PUSH1 0x0 KECCAK256 DUP1 SLOAD PUSH2 0x208 SWAP1 PUSH2 0x54E JUMP JUMPDEST SWAP1 POP EQ PUSH2 0x24A JUMPI PUSH1 0x40 MLOAD PUSH32 0x8C379A000000000000000000000000000000000000000000000000000000000 DUP2 MSTORE PUSH1 0x4 ADD PUSH2 0x241 SWAP1 PUSH2 0x648 JUMP JUMPDEST PUSH1 0x40 MLOAD DUP1 SWAP2 SUB SWAP1 REVERT JUMPDEST DUP2 DUP2 PUSH1 0x0 DUP1 DUP7 PUSH26 0xFFFFFFFFFFFFFFFFFFFFFFFFFFFFFFFFFFFFFFFFFFFFFFFFFFFF NOT AND PUSH26 0xFFFFFFFFFFFFFFFFFFFFFFFFFFFFFFFFFFFFFFFFFFFFFFFFFFFF NOT AND DUP2 MSTORE PUSH1 0x20 ADD SWAP1 DUP2 MSTORE PUSH1 0x20 ADD PUSH1 0x0 KECCAK256 SWAP2 DUP3 PUSH2 0x2A5 SWAP3 SWAP2 SWAP1 PUSH2 0x858 JUMP JUMPDEST POP CALLER PUSH20 0xFFFFFFFFFFFFFFFFFFFFFFFFFFFFFFFFFFFFFFFF AND DUP4 PUSH26 0xFFFFFFFFFFFFFFFFFFFFFFFFFFFFFFFFFFFFFFFFFFFFFFFFFFFF NOT AND PUSH32 0xD98CF9416633CC5B568187D1AE618C931B7E23118FCBC0D81E95F7875F6FF61B DUP5 DUP5 PUSH1 0x40 MLOAD PUSH2 0x30C SWAP3 SWAP2 SWAP1 PUSH2 0x964 JUMP JUMPDEST PUSH1 0x40 MLOAD DUP1 SWAP2 SUB SWAP1 LOG3 POP POP POP JUMP JUMPDEST PUSH1 0x0 DUP1 REVERT JUMPDEST PUSH1 0x0 DUP1 REVERT JUMPDEST PUSH1 0x0 PUSH32 0xFFFFFFFFFFFF0000000000000000000000000000000000000000000000000000 DUP3 AND SWAP1 POP SWAP2 SWAP1 POP JUMP JUMPDEST PUSH2 0x358 DUP2 PUSH2 0x323 JUMP JUMPDEST DUP2 EQ PUSH2 0x363 JUMPI PUSH1 0x0 DUP1 REVERT JUMPDEST POP JUMP JUMPDEST PUSH1 0x0 DUP2 CALLDATALOAD SWAP1 POP PUSH2 0x375 DUP2 PUSH2 0x34F JUMP JUMPDEST SWAP3 SWAP2 POP POP JUMP JUMPDEST PUSH1 0x0 PUSH1 0x20 DUP3 DUP5 SUB SLT ISZERO PUSH2 0x391 JUMPI PUSH2 0x390 PUSH2 0x319 JUMP JUMPDEST JUMPDEST PUSH1 0x0 PUSH2 0x39F DUP5 DUP3 DUP6 ADD PUSH2 0x366 JUMP JUMPDEST SWAP2 POP POP SWAP3 SWAP2 POP POP JUMP JUMPDEST PUSH1 0x0 DUP2 MLOAD SWAP1 POP SWAP2 SWAP1 POP JUMP JUMPDEST PUSH1 0x0 DUP3 DUP3 MSTORE PUSH1 0x20 DUP3 ADD SWAP1 POP SWAP3 SWAP2 POP POP JUMP JUMPDEST PUSH1 0x0 JUMPDEST DUP4 DUP2 LT ISZERO PUSH2 0x3E2 JUMPI DUP1 DUP3 ADD MLOAD DUP2 DUP5 ADD MSTORE PUSH1 0x20 DUP2 ADD SWAP1 POP PUSH2 0x3C7 JUMP JUMPDEST PUSH1 0x0 DUP5 DUP5 ADD MSTORE POP POP POP POP JUMP JUMPDEST PUSH1 0x0 PUSH1 0x1F NOT PUSH1 0x1F DUP4 ADD AND SWAP1 POP SWAP2 SWAP1 POP JUMP JUMPDEST PUSH1 0x0 PUSH2 0x40A DUP3 PUSH2 0x3A8 JUMP JUMPDEST PUSH2 0x414 DUP2 DUP6 PUSH2 0x3B3 JUMP JUMPDEST SWAP4 POP PUSH2 0x424 DUP2 DUP6 PUSH1 0x20 DUP7 ADD PUSH2 0x3C4 JUMP JUMPDEST PUSH2 0x42D DUP2 PUSH2 0x3EE JUMP JUMPDEST DUP5 ADD SWAP2 POP POP SWAP3 SWAP2 POP POP JUMP JUMPDEST PUSH1 0x0 PUSH1 0x20 DUP3 ADD SWAP1 POP DUP2 DUP2 SUB PUSH1 0x0 DUP4 ADD MSTORE PUSH2 0x452 DUP2 DUP5 PUSH2 0x3FF JUMP JUMPDEST SWAP1 POP SWAP3 SWAP2 POP POP JUMP JUMPDEST PUSH1 0x0 DUP1 REVERT JUMPDEST PUSH1 0x0 DUP1 REVERT JUMPDEST PUSH1 0x0 DUP1 REVERT JUMPDEST PUSH1 0x0 DUP1 DUP4 PUSH1 0x1F DUP5 ADD SLT PUSH2 0x47F JUMPI PUSH2 0x47E PUSH2 0x45A JUMP JUMPDEST JUMPDEST DUP3 CALLDATALOAD SWAP1 POP PUSH8 0xFFFFFFFFFFFFFFFF DUP2 GT ISZERO PUSH2 0x49C JUMPI PUSH2 0x49B PUSH2 0x45F JUMP JUMPDEST JUMPDEST PUSH1 0x20 DUP4 ADD SWAP2 POP DUP4 PUSH1 0x1 DUP3 MUL DUP4 ADD GT ISZERO PUSH2 0x4B8 JUMPI PUSH2 0x4B7 PUSH2 0x464 JUMP JUMPDEST JUMPDEST SWAP3 POP SWAP3 SWAP1 POP JUMP JUMPDEST PUSH1 0x0 DUP1 PUSH1 0x0 PUSH1 0x40 DUP5 DUP7 SUB SLT ISZERO PUSH2 0x4D8 JUMPI PUSH2 0x4D7 PUSH2 0x319 JUMP JUMPDEST JUMPDEST PUSH1 0x0 PUSH2 0x4E6 DUP7 DUP3 DUP8 ADD PUSH2 0x366 JUMP JUMPDEST SWAP4 POP POP PUSH1 0x20 DUP5 ADD CALLDATALOAD PUSH8 0xFFFFFFFFFFFFFFFF DUP2 GT ISZERO PUSH2 0x507 JUMPI PUSH2 0x506 PUSH2 0x31E JUMP JUMPDEST JUMPDEST PUSH2 0x513 DUP7 DUP3 DUP8 ADD PUSH2 0x469 JUMP JUMPDEST SWAP3 POP SWAP3 POP POP SWAP3 POP SWAP3 POP SWAP3 JUMP JUMPDEST PUSH32 0x4E487B7100000000000000000000000000000000000000000000000000000000 PUSH1 0x0 MSTORE PUSH1 0x22 PUSH1 0x4 MSTORE PUSH1 0x24 PUSH1 0x0 REVERT JUMPDEST PUSH1 0x0 PUSH1 0x2 DUP3 DIV SWAP1 POP PUSH1 0x1 DUP3 AND DUP1 PUSH2 0x566 JUMPI PUSH1 0x7F DUP3 AND SWAP2 POP JUMPDEST PUSH1 0x20 DUP3 LT DUP2 SUB PUSH2 0x579 JUMPI PUSH2 0x578 PUSH2 0x51F JUMP JUMPDEST JUMPDEST POP SWAP2 SWAP1 POP JUMP JUMPDEST PUSH1 0x0 DUP3 DUP3 MSTORE PUSH1 0x20 DUP3 ADD SWAP1 POP SWAP3 SWAP2 POP POP JUMP JUMPDEST PUSH32 0x456E747279206E6F7420666F756E640000000000000000000000000000000000 PUSH1 0x0 DUP3 ADD MSTORE POP JUMP JUMPDEST PUSH1 0x0 PUSH2 0x5C6 PUSH1 0xF DUP4 PUSH2 0x57F JUMP JUMPDEST SWAP2 POP PUSH2 0x5D1 DUP3 PUSH2 0x590 JUMP JUMPDEST PUSH1 0x20 DUP3 ADD SWAP1 POP SWAP2 SWAP1 POP JUMP JUMPDEST PUSH1 0x0 PUSH1 0x20 DUP3 ADD SWAP1 POP DUP2 DUP2 SUB PUSH1 0x0 DUP4 ADD MSTORE PUSH2 0x5F5 DUP2 PUSH2 0x5B9 JUMP JUMPDEST SWAP1 POP SWAP2 SWAP1 POP JUMP JUMPDEST PUSH32 0x53686F727420636F646520616C72656164792072656769737465726564000000 PUSH1 0x0 DUP3 ADD MSTORE POP JUMP JUMPDEST PUSH1 0x0 PUSH2 0x632 PUSH1 0x1D DUP4 PUSH2 0x57F JUMP JUMPDEST SWAP2 POP PUSH2 0x63D DUP3 PUSH2 0x5FC JUMP JUMPDEST PUSH1 0x20 DUP3 ADD SWAP1 POP SWAP2 SWAP1 POP JUMP JUMPDEST PUSH1 0x0 PUSH1 0x20 DUP3 ADD SWAP1 POP DUP2 DUP2 SUB PUSH1 0x0 DUP4 ADD MSTORE PUSH2 0x661 DUP2 PUSH2 0x625 JUMP JUMPDEST SWAP1 POP SWAP2 SWAP1 POP JUMP JUMPDEST PUSH1 0x0 DUP3 SWAP1 POP SWAP3 SWAP2 POP POP JUMP JUMPDEST PUSH32 0x4E487B7100000000000000000000000000000000000000000000000000000000 PUSH1 0x0 MSTORE PUSH1 0x41 PUSH1 0x4 MSTORE PUSH1 0x24 PUSH1 0x0 REVERT JUMPDEST PUSH1 0x0 DUP2 SWAP1 POP DUP2 PUSH1 0x0 MSTORE PUSH1 0x20 PUSH1 0x0 KECCAK256 SWAP1 POP SWAP2 SWAP1 POP JUMP JUMPDEST PUSH1 0x0 PUSH1 0x20 PUSH1 0x1F DUP4 ADD DIV SWAP1 POP SWAP2 SWAP1 POP JUMP JUMPDEST PUSH1 0x0 DUP3 DUP3 SHL SWAP1 POP SWAP3 SWAP2 POP POP JUMP JUMPDEST PUSH1 0x0 PUSH1 0x8 DUP4 MUL PUSH2 0x704 PUSH32 0xFFFFFFFFFFFFFFFFFFFFFFFFFFFFFFFFFFFFFFFFFFFFFFFFFFFFFFFFFFFFFFFF DUP3 PUSH2 0x6C7 JUMP JUMPDEST PUSH2 0x70E DUP7 DUP4 PUSH2 0x6C7 JUMP JUMPDEST SWAP6 POP DUP1 NOT DUP5 AND SWAP4 POP DUP1 DUP7 AND DUP5 OR SWAP3 POP POP POP SWAP4 SWAP3 POP POP POP JUMP JUMPDEST PUSH1 0x0 DUP2 SWAP1 POP SWAP2 SWAP1 POP JUMP JUMPDEST PUSH1 0x0 DUP2 SWAP1 POP SWAP2 SWAP1 POP JUMP JUMPDEST PUSH1 0x0 PUSH2 0x755 PUSH2 0x750 PUSH2 0x74B DUP5 PUSH2 0x726 JUMP JUMPDEST PUSH2 0x730 JUMP JUMPDEST PUSH2 0x726 JUMP JUMPDEST SWAP1 POP SWAP2 SWAP1 POP JUMP JUMPDEST PUSH1 0x0 DUP2 SWAP1 POP SWAP2 SWAP1 POP JUMP JUMPDEST PUSH2 0x76F DUP4 PUSH2 0x73A JUMP JUMPDEST PUSH2 0x783 PUSH2 0x77B DUP3 PUSH2 0x75C JUMP JUMPDEST DUP5 DUP5 SLOAD PUSH2 0x6D4 JUMP JUMPDEST DUP3 SSTORE POP POP POP POP JUMP JUMPDEST PUSH1 0x0 SWAP1 JUMP JUMPDEST PUSH2 0x798 PUSH2 0x78B JUMP JUMPDEST PUSH2 0x7A3 DUP2 DUP5 DUP5 PUSH2 0x766 JUMP JUMPDEST POP POP POP JUMP JUMPDEST JUMPDEST DUP2 DUP2 LT ISZERO PUSH2 0x7C7 JUMPI PUSH2 0x7BC PUSH1 0x0 DUP3 PUSH2 0x790 JUMP JUMPDEST PUSH1 0x1 DUP2 ADD SWAP1 POP PUSH2 0x7A9 JUMP JUMPDEST POP POP JUMP JUMPDEST PUSH1 0x1F DUP3 GT ISZERO PUSH2 0x80C JUMPI PUSH2 0x7DD DUP2 PUSH2 0x6A2 JUMP JUMPDEST PUSH2 0x7E6 DUP5 PUSH2 0x6B7 JUMP JUMPDEST DUP2 ADD PUSH1 0x20 DUP6 LT ISZERO PUSH2 0x7F5 JUMPI DUP2 SWAP1 POP JUMPDEST PUSH2 0x809 PUSH2 0x801 DUP6 PUSH2 0x6B7 JUMP JUMPDEST DUP4 ADD DUP3 PUSH2 0x7A8 JUMP JUMPDEST POP POP JUMPDEST POP POP POP JUMP JUMPDEST PUSH1 0x0 DUP3 DUP3 SHR SWAP1 POP SWAP3 SWAP2 POP POP JUMP JUMPDEST PUSH1 0x0 PUSH2 0x82F PUSH1 0x0 NOT DUP5 PUSH1 0x8 MUL PUSH2 0x811 JUMP JUMPDEST NOT DUP1 DUP4 AND SWAP2 POP POP SWAP3 SWAP2 POP POP JUMP JUMPDEST PUSH1 0x0 PUSH2 0x848 DUP4 DUP4 PUSH2 0x81E JUMP JUMPDEST SWAP2 POP DUP3 PUSH1 0x2 MUL DUP3 OR SWAP1 POP SWAP3 SWAP2 POP POP JUMP JUMPDEST PUSH2 0x862 DUP4 DUP4 PUSH2 0x668 JUMP JUMPDEST PUSH8 0xFFFFFFFFFFFFFFFF DUP2 GT ISZERO PUSH2 0x87B JUMPI PUSH2 0x87A PUSH2 0x673 JUMP JUMPDEST JUMPDEST PUSH2 0x885 DUP3 SLOAD PUSH2 0x54E JUMP JUMPDEST PUSH2 0x890 DUP3 DUP3 DUP6 PUSH2 0x7CB JUMP JUMPDEST PUSH1 0x0 PUSH1 0x1F DUP4 GT PUSH1 0x1 DUP2 EQ PUSH2 0x8BF JUMPI PUSH1 0x0 DUP5 ISZERO PUSH2 0x8AD JUMPI DUP3 DUP8 ADD CALLDATALOAD SWAP1 POP JUMPDEST PUSH2 0x8B7 DUP6 DUP3 PUSH2 0x83C JUMP JUMPDEST DUP7 SSTORE POP PUSH2 0x91F JUMP JUMPDEST PUSH1 0x1F NOT DUP5 AND PUSH2 0x8CD DUP7 PUSH2 0x6A2 JUMP JUMPDEST PUSH1 0x0 JUMPDEST DUP3 DUP2 LT ISZERO PUSH2 0x8F5 JUMPI DUP5 DUP10 ADD CALLDATALOAD DUP3 SSTORE PUSH1 0x1 DUP3 ADD SWAP2 POP PUSH1 0x20 DUP6 ADD SWAP5 POP PUSH1 0x20 DUP2 ADD SWAP1 POP PUSH2 0x8D0 JUMP JUMPDEST DUP7 DUP4 LT ISZERO PUSH2 0x912 JUMPI DUP5 DUP10 ADD CALLDATALOAD PUSH2 0x90E PUSH1 0x1F DUP10 AND DUP3 PUSH2 0x81E JUMP JUMPDEST DUP4 SSTORE POP JUMPDEST PUSH1 0x1 PUSH1 0x2 DUP9 MUL ADD DUP9 SSTORE POP POP POP JUMPDEST POP POP POP POP POP POP POP JUMP JUMPDEST DUP3 DUP2 DUP4 CALLDATACOPY PUSH1 0x0 DUP4 DUP4 ADD MSTORE POP POP POP JUMP JUMPDEST PUSH1 0x0 PUSH2 0x943 DUP4 DUP6 PUSH2 0x3B3 JUMP JUMPDEST SWAP4 POP PUSH2 0x950 DUP4 DUP6 DUP5 PUSH2 0x928 JUMP JUMPDEST PUSH2 0x959 DUP4 PUSH2 0x3EE JUMP JUMPDEST DUP5 ADD SWAP1 POP SWAP4 SWAP3 POP POP POP JUMP JUMPDEST PUSH1 0x0 PUSH1 0x20 DUP3 ADD SWAP1 POP DUP2 DUP2 SUB PUSH1 0x0 DUP4 ADD MSTORE PUSH2 0x97F DUP2 DUP5 DUP7 PUSH2 0x937 JUMP JUMPDEST SWAP1 POP SWAP4 SWAP3 POP POP POP JUMP INVALID LOG2 PUSH5 0x6970667358 0x22 SLT KECCAK256 0xC4 0xEA 0xC1 CALLDATALOAD CALLVALUE DUP11 MLOAD 0xC1 0x22 PUSH14 0xF3286A6E35A1AB3679969A91A789 JUMPDEST PUSH1 0x5F PUSH30 0xA3BE0C5B64736F6C63430008120033000000000000000000000000000000 "},"methodIdentifiers":{"register(bytes6,bytes)":"d65cdc6d","resolve(bytes6)":"9ad647c3"}}}}}