{
  "_format": "hh-sol-artifact-1",
  "contractName": "Registry",
  "sourceName": "contracts/Registry.sol",
  "abi": [
    {
      "anonymous": false,
      "inputs": [
        {
          "indexed": true,
          "internalType": "bytes6",
          "name": "shortCode",
          "type": "bytes6"
        },
        {
          "indexed": false,
          "internalType": "bytes",
          "name": "cid",
          "type": "bytes"
        },
        {
          "indexed": true,
          "internalType": "address",
          "name": "author",
          "type": "address"
        }
      ],
      "name": "Registered",
      "type": "event"
    },
    {
      "inputs": [
        {
          "internalType": "bytes6",
          "name": "shortCode",
          "type": "bytes6"
        },
        {
          "internalType": "bytes",
          "name": "cid",
          "type": "bytes"
        }
      ],
      "name": "register",
      "outputs": [],
      "stateMutability": "nonpayable",
      "type": "function"
    },
    {
      "inputs": [
        {
          "internalType": "bytes6",
          "name": "shortCode",
          "type": "bytes6"
        }
      ],
      "name": "resolve",
      "outputs": [
        {
          "internalType": "bytes",
          "name": "",
          "type": "bytes"
        }
      ],
      "stateMutability": "view",
      "type": "function"
    }
  ],
  "bytecode": "0x608060405234801561001057600080fd5b506109be806100206000396000f3fe608060405234801561001057600080fd5b50600436106100365760003560e01c80639ad647c31461003b578063d65cdc6d1461006b575b600080fd5b6100556004803603810190610050919061037b565b610087565b6040516100629190610438565b60405180910390f35b610085600480360381019061008091906104bf565b6101af565b005b606060008060008479ffffffffffffffffffffffffffffffffffffffffffffffffffff191679ffffffffffffffffffffffffffffffffffffffffffffffffffff1916815260200190815260200160002080546100e29061054e565b80601f016020809104026020016040519081016040528092919081815260200182805461010e9061054e565b801561015b5780601f106101305761010080835404028352916020019161015b565b820191906000526020600020905b81548152906001019060200180831161013e57829003601f168201915b5050505050905060008151036101a6576040517f08c379a000000000000000000000000000000000000000000000000000000000815260040161019d906105dc565b60405180910390fd5b80915050919050565b60008060008579ffffffffffffffffffffffffffffffffffffffffffffffffffff191679ffffffffffffffffffffffffffffffffffffffffffffffffffff1916815260200190815260200160002080546102089061054e565b90501461024a576040517f08c379a000000000000000000000000000000000000000000000000000000000815260040161024190610648565b60405180910390fd5b81816000808679ffffffffffffffffffffffffffffffffffffffffffffffffffff191679ffffffffffffffffffffffffffffffffffffffffffffffffffff1916815260200190815260200160002091826102a5929190610858565b503373ffffffffffffffffffffffffffffffffffffffff168379ffffffffffffffffffffffffffffffffffffffffffffffffffff19167fd98cf9416633cc5b568187d1ae618c931b7e23118fcbc0d81e95f7875f6ff61b848460405161030c929190610964565b60405180910390a3505050565b600080fd5b600080fd5b60007fffffffffffff000000000000000000000000000000000000000000000000000082169050919050565b61035881610323565b811461036357600080fd5b50565b6000813590506103758161034f565b92915050565b60006020828403121561039157610390610319565b5b600061039f84828501610366565b91505092915050565b600081519050919050565b600082825260208201905092915050565b60005b838110156103e25780820151818401526020810190506103c7565b60008484015250505050565b6000601f19601f8301169050919050565b600061040a826103a8565b61041481856103b3565b93506104248185602086016103c4565b61042d816103ee565b840191505092915050565b6000602082019050818103600083015261045281846103ff565b905092915050565b600080fd5b600080fd5b600080fd5b60008083601f84011261047f5761047e61045a565b5b8235905067ffffffffffffffff81111561049c5761049b61045f565b5b6020830191508360018202830111156104b8576104b7610464565b5b9250929050565b6000806000604084860312156104d8576104d7610319565b5b60006104e686828701610366565b935050602084013567ffffffffffffffff8111156105075761050661031e565b5b61051386828701610469565b92509250509250925092565b7f4e487b7100000000000000000000000000000000000000000000000000000000600052602260045260246000fd5b6000600282049050600182168061056657607f821691505b6020821081036105795761057861051f565b5b50919050565b600082825260208201905092915050565b7f456e747279206e6f7420666f756e640000000000000000000000000000000000600082015250565b60006105c6600f8361057f565b91506105d182610590565b602082019050919050565b600060208201905081810360008301526105f5816105b9565b9050919050565b7f53686f727420636f646520616c72656164792072656769737465726564000000600082015250565b6000610632601d8361057f565b915061063d826105fc565b602082019050919050565b6000602082019050818103600083015261066181610625565b9050919050565b600082905092915050565b7f4e487b7100000000000000000000000000000000000000000000000000000000600052604160045260246000fd5b60008190508160005260206000209050919050565b60006020601f8301049050919050565b600082821b905092915050565b6000600883026107047fffffffffffffffffffffffffffffffffffffffffffffffffffffffffffffffff826106c7565b61070e86836106c7565b95508019841693508086168417925050509392505050565b6000819050919050565b6000819050919050565b600061075561075061074b84610726565b610730565b610726565b9050919050565b6000819050919050565b61076f8361073a565b61078361077b8261075c565b8484546106d4565b825550505050565b600090565b61079861078b565b6107a3818484610766565b505050565b5b818110156107c7576107bc600082610790565b6001810190506107a9565b5050565b601f82111561080c576107dd816106a2565b6107e6846106b7565b810160208510156107f5578190505b610809610801856106b7565b8301826107a8565b50505b505050565b600082821c905092915050565b600061082f60001984600802610811565b1980831691505092915050565b6000610848838361081e565b9150826002028217905092915050565b6108628383610668565b67ffffffffffffffff81111561087b5761087a610673565b5b610885825461054e565b6108908282856107cb565b6000601f8311600181146108bf57600084156108ad578287013590505b6108b7858261083c565b86555061091f565b601f1984166108cd866106a2565b60005b828110156108f5578489013582556001820191506020850194506020810190506108d0565b86831015610912578489013561090e601f89168261081e565b8355505b6001600288020188555050505b50505050505050565b82818337600083830152505050565b600061094383856103b3565b9350610950838584610928565b610959836103ee565b840190509392505050565b6000602082019050818103600083015261097f818486610937565b9050939250505056fea2646970667358221220c4eac135348a51c1226df3286a6e35a1ab3679969a91a7895b605f7da3be0c5b64736f6c63430008120033",
  "linkReferences": {},
  "deployedLinkReferences": {}
}